{
  "_format": "hh-sol-artifact-1",
  "contractName": "LandRegistry",
  "sourceName": "contracts/landRegistry.sol",
  "abi": [
    {
      "anonymous": false,
      "inputs": [
        {
          "indexed": false,
          "internalType": "uint256",
          "name": "landId",
          "type": "uint256"
        },
        {
          "indexed": false,
          "internalType": "string",
          "name": "ownerName",
          "type": "string"
        },
        {
          "indexed": false,
          "internalType": "string",
          "name": "location",
          "type": "string"
        },
        {
          "indexed": false,
          "internalType": "uint256",
          "name": "price",
          "type": "uint256"
        },
        {
          "indexed": false,
          "internalType": "address",
          "name": "owner",
          "type": "address"
        }
      ],
      "name": "LandRegistered",
      "type": "event"
    },
    {
      "anonymous": false,
      "inputs": [
        {
          "indexed": false,
          "internalType": "uint256",
          "name": "landId",
          "type": "uint256"
        },
        {
          "indexed": false,
          "internalType": "address",
          "name": "oldOwner",
          "type": "address"
        },
        {
          "indexed": false,
          "internalType": "address",
          "name": "newOwner",
          "type": "address"
        },
        {
          "indexed": false,
          "internalType": "string",
          "name": "newOwnerName",
          "type": "string"
        }
      ],
      "name": "OwnershipTransferred",
      "type": "event"
    },
    {
      "inputs": [],
      "name": "getAllLandIds",
      "outputs": [
        {
          "internalType": "uint256[]",
          "name": "",
          "type": "uint256[]"
        }
      ],
      "stateMutability": "view",
      "type": "function"
    },
    {
      "inputs": [
        {
          "internalType": "uint256",
          "name": "_landId",
          "type": "uint256"
        }
      ],
      "name": "getLand",
      "outputs": [
        {
          "internalType": "uint256",
          "name": "",
          "type": "uint256"
        },
        {
          "internalType": "string",
          "name": "",
          "type": "string"
        },
        {
          "internalType": "string",
          "name": "",
          "type": "string"
        },
        {
          "internalType": "uint256",
          "name": "",
          "type": "uint256"
        },
        {
          "internalType": "address",
          "name": "",
          "type": "address"
        }
      ],
      "stateMutability": "view",
      "type": "function"
    },
    {
      "inputs": [
        {
          "internalType": "uint256",
          "name": "",
          "type": "uint256"
        }
      ],
      "name": "landIds",
      "outputs": [
        {
          "internalType": "uint256",
          "name": "",
          "type": "uint256"
        }
      ],
      "stateMutability": "view",
      "type": "function"
    },
    {
      "inputs": [
        {
          "internalType": "uint256",
          "name": "",
          "type": "uint256"
        }
      ],
      "name": "lands",
      "outputs": [
        {
          "internalType": "uint256",
          "name": "landId",
          "type": "uint256"
        },
        {
          "internalType": "string",
          "name": "ownerName",
          "type": "string"
        },
        {
          "internalType": "string",
          "name": "location",
          "type": "string"
        },
        {
          "internalType": "uint256",
          "name": "price",
          "type": "uint256"
        },
        {
          "internalType": "address",
          "name": "owner",
          "type": "address"
        },
        {
          "internalType": "bool",
          "name": "exists",
          "type": "bool"
        }
      ],
      "stateMutability": "view",
      "type": "function"
    },
    {
      "inputs": [
        {
          "internalType": "uint256",
          "name": "_landId",
          "type": "uint256"
        },
        {
          "internalType": "string",
          "name": "_ownerName",
          "type": "string"
        },
        {
          "internalType": "string",
          "name": "_location",
          "type": "string"
        },
        {
          "internalType": "uint256",
          "name": "_price",
          "type": "uint256"
        }
      ],
      "name": "registerLand",
      "outputs": [],
      "stateMutability": "nonpayable",
      "type": "function"
    },
    {
      "inputs": [
        {
          "internalType": "uint256",
          "name": "_landId",
          "type": "uint256"
        },
        {
          "internalType": "address",
          "name": "_newOwner",
          "type": "address"
        },
        {
          "internalType": "string",
          "name": "_newOwnerName",
          "type": "string"
        }
      ],
      "name": "transferLand",
      "outputs": [],
      "stateMutability": "nonpayable",
      "type": "function"
    }
  ],
  "bytecode": "0x608060405234801561001057600080fd5b506113c8806100206000396000f3fe608060405234801561001057600080fd5b50600436106100625760003560e01c806339ddfe2414610067578063903a945114610083578063cde6d0f8146100b3578063d7dee192146100cf578063e261f1e5146100ed578063f02dd53f14610122575b600080fd5b610081600480360381019061007c9190610b66565b610156565b005b61009d60048036038101906100989190610bd5565b61034f565b6040516100aa9190610c11565b60405180910390f35b6100cd60048036038101906100c89190610c2c565b610373565b005b6100d7610546565b6040516100e49190610d89565b60405180910390f35b61010760048036038101906101029190610bd5565b61059e565b60405161011996959493929190610e54565b60405180910390f35b61013c60048036038101906101379190610bd5565b610717565b60405161014d959493929190610ec3565b60405180910390f35b60008084815260200190815260200160002060040160149054906101000a900460ff166101b8576040517f08c379a00000000000000000000000000000000000000000000000000000000081526004016101af90610f70565b60405180910390fd5b60008084815260200190815260200160002060040160009054906101000a900473ffffffffffffffffffffffffffffffffffffffff1673ffffffffffffffffffffffffffffffffffffffff163373ffffffffffffffffffffffffffffffffffffffff161461025b576040517f08c379a000000000000000000000000000000000000000000000000000000000815260040161025290610fdc565b60405180910390fd5b600080600085815260200190815260200160002060040160009054906101000a900473ffffffffffffffffffffffffffffffffffffffff1690508260008086815260200190815260200160002060040160006101000a81548173ffffffffffffffffffffffffffffffffffffffff021916908373ffffffffffffffffffffffffffffffffffffffff16021790555081600080868152602001908152602001600020600101908161030b9190611208565b507fc6f76974206718b625c9faba8b5ae1931f1e7a6620c23458a74554aeffef13608482858560405161034194939291906112da565b60405180910390a150505050565b6001818154811061035f57600080fd5b906000526020600020016000915090505481565b60008085815260200190815260200160002060040160149054906101000a900460ff16156103d6576040517f08c379a00000000000000000000000000000000000000000000000000000000081526004016103cd90611372565b60405180910390fd5b6040518060c001604052808581526020018481526020018381526020018281526020013373ffffffffffffffffffffffffffffffffffffffff1681526020016001151581525060008086815260200190815260200160002060008201518160000155602082015181600101908161044d9190611208565b5060408201518160020190816104639190611208565b506060820151816003015560808201518160040160006101000a81548173ffffffffffffffffffffffffffffffffffffffff021916908373ffffffffffffffffffffffffffffffffffffffff16021790555060a08201518160040160146101000a81548160ff02191690831515021790555090505060018490806001815401808255809150506001900390600052602060002001600090919091909150557fe82ee38c4fa57ca51af3f2b0f73dd24d9ef27fb933bb0aa915b1a5f3a0bea6fa8484848433604051610538959493929190610ec3565b60405180910390a150505050565b6060600180548060200260200160405190810160405280929190818152602001828054801561059457602002820191906000526020600020905b815481526020019060010190808311610580575b5050505050905090565b60006020528060005260406000206000915090508060000154908060010180546105c79061102b565b80601f01602080910402602001604051908101604052809291908181526020018280546105f39061102b565b80156106405780601f1061061557610100808354040283529160200191610640565b820191906000526020600020905b81548152906001019060200180831161062357829003601f168201915b5050505050908060020180546106559061102b565b80601f01602080910402602001604051908101604052809291908181526020018280546106819061102b565b80156106ce5780601f106106a3576101008083540402835291602001916106ce565b820191906000526020600020905b8154815290600101906020018083116106b157829003601f168201915b5050505050908060030154908060040160009054906101000a900473ffffffffffffffffffffffffffffffffffffffff16908060040160149054906101000a900460ff16905086565b600060608060008060008087815260200190815260200160002060040160149054906101000a900460ff16610781576040517f08c379a000000000000000000000000000000000000000000000000000000000815260040161077890610f70565b60405180910390fd5b60008060008881526020019081526020016000206040518060c0016040529081600082015481526020016001820180546107ba9061102b565b80601f01602080910402602001604051908101604052809291908181526020018280546107e69061102b565b80156108335780601f1061080857610100808354040283529160200191610833565b820191906000526020600020905b81548152906001019060200180831161081657829003601f168201915b5050505050815260200160028201805461084c9061102b565b80601f01602080910402602001604051908101604052809291908181526020018280546108789061102b565b80156108c55780601f1061089a576101008083540402835291602001916108c5565b820191906000526020600020905b8154815290600101906020018083116108a857829003601f168201915b50505050508152602001600382015481526020016004820160009054906101000a900473ffffffffffffffffffffffffffffffffffffffff1673ffffffffffffffffffffffffffffffffffffffff1673ffffffffffffffffffffffffffffffffffffffff1681526020016004820160149054906101000a900460ff161515151581525050905080600001518160200151826040015183606001518460800151955095509550955095505091939590929450565b6000604051905090565b600080fd5b600080fd5b6000819050919050565b61099f8161098c565b81146109aa57600080fd5b50565b6000813590506109bc81610996565b92915050565b600073ffffffffffffffffffffffffffffffffffffffff82169050919050565b60006109ed826109c2565b9050919050565b6109fd816109e2565b8114610a0857600080fd5b50565b600081359050610a1a816109f4565b92915050565b600080fd5b600080fd5b6000601f19601f8301169050919050565b7f4e487b7100000000000000000000000000000000000000000000000000000000600052604160045260246000fd5b610a7382610a2a565b810181811067ffffffffffffffff82111715610a9257610a91610a3b565b5b80604052505050565b6000610aa5610978565b9050610ab18282610a6a565b919050565b600067ffffffffffffffff821115610ad157610ad0610a3b565b5b610ada82610a2a565b9050602081019050919050565b82818337600083830152505050565b6000610b09610b0484610ab6565b610a9b565b905082815260208101848484011115610b2557610b24610a25565b5b610b30848285610ae7565b509392505050565b600082601f830112610b4d57610b4c610a20565b5b8135610b5d848260208601610af6565b91505092915050565b600080600060608486031215610b7f57610b7e610982565b5b6000610b8d868287016109ad565b9350506020610b9e86828701610a0b565b925050604084013567ffffffffffffffff811115610bbf57610bbe610987565b5b610bcb86828701610b38565b9150509250925092565b600060208284031215610beb57610bea610982565b5b6000610bf9848285016109ad565b91505092915050565b610c0b8161098c565b82525050565b6000602082019050610c266000830184610c02565b92915050565b60008060008060808587031215610c4657610c45610982565b5b6000610c54878288016109ad565b945050602085013567ffffffffffffffff811115610c7557610c74610987565b5b610c8187828801610b38565b935050604085013567ffffffffffffffff811115610ca257610ca1610987565b5b610cae87828801610b38565b9250506060610cbf878288016109ad565b91505092959194509250565b600081519050919050565b600082825260208201905092915050565b6000819050602082019050919050565b610d008161098c565b82525050565b6000610d128383610cf7565b60208301905092915050565b6000602082019050919050565b6000610d3682610ccb565b610d408185610cd6565b9350610d4b83610ce7565b8060005b83811015610d7c578151610d638882610d06565b9750610d6e83610d1e565b925050600181019050610d4f565b5085935050505092915050565b60006020820190508181036000830152610da38184610d2b565b905092915050565b600081519050919050565b600082825260208201905092915050565b60005b83811015610de5578082015181840152602081019050610dca565b60008484015250505050565b6000610dfc82610dab565b610e068185610db6565b9350610e16818560208601610dc7565b610e1f81610a2a565b840191505092915050565b610e33816109e2565b82525050565b60008115159050919050565b610e4e81610e39565b82525050565b600060c082019050610e696000830189610c02565b8181036020830152610e7b8188610df1565b90508181036040830152610e8f8187610df1565b9050610e9e6060830186610c02565b610eab6080830185610e2a565b610eb860a0830184610e45565b979650505050505050565b600060a082019050610ed86000830188610c02565b8181036020830152610eea8187610df1565b90508181036040830152610efe8186610df1565b9050610f0d6060830185610c02565b610f1a6080830184610e2a565b9695505050505050565b7f4c616e64206e6f7420666f756e64000000000000000000000000000000000000600082015250565b6000610f5a600e83610db6565b9150610f6582610f24565b602082019050919050565b60006020820190508181036000830152610f8981610f4d565b9050919050565b7f4f6e6c79206f776e65722063616e207472616e73666572000000000000000000600082015250565b6000610fc6601783610db6565b9150610fd182610f90565b602082019050919050565b60006020820190508181036000830152610ff581610fb9565b9050919050565b7f4e487b7100000000000000000000000000000000000000000000000000000000600052602260045260246000fd5b6000600282049050600182168061104357607f821691505b60208210810361105657611055610ffc565b5b50919050565b60008190508160005260206000209050919050565b60006020601f8301049050919050565b600082821b905092915050565b6000600883026110be7fffffffffffffffffffffffffffffffffffffffffffffffffffffffffffffffff82611081565b6110c88683611081565b95508019841693508086168417925050509392505050565b6000819050919050565b60006111056111006110fb8461098c565b6110e0565b61098c565b9050919050565b6000819050919050565b61111f836110ea565b61113361112b8261110c565b84845461108e565b825550505050565b600090565b61114861113b565b611153818484611116565b505050565b5b818110156111775761116c600082611140565b600181019050611159565b5050565b601f8211156111bc5761118d8161105c565b61119684611071565b810160208510156111a5578190505b6111b96111b185611071565b830182611158565b50505b505050565b600082821c905092915050565b60006111df600019846008026111c1565b1980831691505092915050565b60006111f883836111ce565b9150826002028217905092915050565b61121182610dab565b67ffffffffffffffff81111561122a57611229610a3b565b5b611234825461102b565b61123f82828561117b565b600060209050601f8311600181146112725760008415611260578287015190505b61126a85826111ec565b8655506112d2565b601f1984166112808661105c565b60005b828110156112a857848901518255600182019150602085019450602081019050611283565b868310156112c557848901516112c1601f8916826111ce565b8355505b6001600288020188555050505b505050505050565b60006080820190506112ef6000830187610c02565b6112fc6020830186610e2a565b6113096040830185610e2a565b818103606083015261131b8184610df1565b905095945050505050565b7f4c616e6420494420616c72656164792065786973747300000000000000000000600082015250565b600061135c601683610db6565b915061136782611326565b602082019050919050565b6000602082019050818103600083015261138b8161134f565b905091905056fea26469706673582212202aa0b2428656e41b7dcc7f52005ab3a36e58385e108faa81e14e3d2ec759862764736f6c63430008140033",
  "linkReferences": {},
  "deployedLinkReferences": {}
}